{
	"Gacha/Test.sol": {
		"Demo": {
			"abi": [
				{
					"inputs": [
						{
							"internalType": "uint256",
							"name": "a",
							"type": "uint256"
						},
						{
							"internalType": "uint256",
							"name": "b",
							"type": "uint256"
						}
					],
					"name": "getData",
					"outputs": [
						{
							"internalType": "uint256",
							"name": "",
							"type": "uint256"
						}
					],
					"stateMutability": "view",
					"type": "function"
				}
			],
			"devdoc": {
				"kind": "dev",
				"methods": {},
				"version": 1
			},
			"evm": {
				"assembly": "    /* \"Gacha/Test.sol\":85:239  contract Demo{... */\n  mstore(0x40, 0x80)\n  callvalue\n  dup1\n  iszero\n  tag_1\n  jumpi\n  0x00\n  dup1\n  revert\ntag_1:\n  pop\n  dataSize(sub_0)\n  dup1\n  dataOffset(sub_0)\n  0x00\n  codecopy\n  0x00\n  return\nstop\n\nsub_0: assembly {\n        /* \"Gacha/Test.sol\":85:239  contract Demo{... */\n      mstore(0x40, 0x80)\n      callvalue\n      dup1\n      iszero\n      tag_1\n      jumpi\n      0x00\n      dup1\n      revert\n    tag_1:\n      pop\n      jumpi(tag_2, lt(calldatasize, 0x04))\n      shr(0xe0, calldataload(0x00))\n      dup1\n      0x4e4fe306\n      eq\n      tag_3\n      jumpi\n    tag_2:\n      0x00\n      dup1\n      revert\n        /* \"Gacha/Test.sol\":137:237  function getData(uint256 a, uint256 b) public view returns(uint256) {... */\n    tag_3:\n      tag_4\n      0x04\n      dup1\n      calldatasize\n      sub\n      dup2\n      add\n      swap1\n      tag_5\n      swap2\n      swap1\n      tag_6\n      jump\t// in\n    tag_5:\n      tag_7\n      jump\t// in\n    tag_4:\n      mload(0x40)\n      tag_8\n      swap2\n      swap1\n      tag_9\n      jump\t// in\n    tag_8:\n      mload(0x40)\n      dup1\n      swap2\n      sub\n      swap1\n      return\n    tag_7:\n        /* \"Gacha/Test.sol\":196:203  uint256 */\n      0x00\n        /* \"Gacha/Test.sol\":222:230  a.div(b) */\n      tag_11\n        /* \"Gacha/Test.sol\":228:229  b */\n      dup3\n        /* \"Gacha/Test.sol\":222:223  a */\n      dup5\n        /* \"Gacha/Test.sol\":222:227  a.div */\n      tag_12\n      swap1\n        /* \"Gacha/Test.sol\":222:230  a.div(b) */\n      swap2\n      swap1\n      0xffffffff\n      and\n      jump\t// in\n    tag_11:\n        /* \"Gacha/Test.sol\":215:230  return a.div(b) */\n      swap1\n      pop\n        /* \"Gacha/Test.sol\":137:237  function getData(uint256 a, uint256 b) public view returns(uint256) {... */\n      swap3\n      swap2\n      pop\n      pop\n      jump\t// out\n        /* \"Gacha/SafeMath.sol\":2538:2668  function div(uint256 a, uint256 b) internal pure returns (uint256) {... */\n    tag_12:\n        /* \"Gacha/SafeMath.sol\":2596:2603  uint256 */\n      0x00\n        /* \"Gacha/SafeMath.sol\":2622:2661  div(a, b, \"SafeMath: division by zero\") */\n      tag_14\n        /* \"Gacha/SafeMath.sol\":2626:2627  a */\n      dup4\n        /* \"Gacha/SafeMath.sol\":2629:2630  b */\n      dup4\n        /* \"Gacha/SafeMath.sol\":2622:2661  div(a, b, \"SafeMath: division by zero\") */\n      mload(0x40)\n      dup1\n      0x40\n      add\n      0x40\n      mstore\n      dup1\n      0x1a\n      dup2\n      mstore\n      0x20\n      add\n      0x536166654d6174683a206469766973696f6e206279207a65726f000000000000\n      dup2\n      mstore\n      pop\n        /* \"Gacha/SafeMath.sol\":2622:2625  div */\n      tag_15\n        /* \"Gacha/SafeMath.sol\":2622:2661  div(a, b, \"SafeMath: division by zero\") */\n      jump\t// in\n    tag_14:\n        /* \"Gacha/SafeMath.sol\":2615:2661  return div(a, b, \"SafeMath: division by zero\") */\n      swap1\n      pop\n        /* \"Gacha/SafeMath.sol\":2538:2668  function div(uint256 a, uint256 b) internal pure returns (uint256) {... */\n      swap3\n      swap2\n      pop\n      pop\n      jump\t// out\n        /* \"Gacha/SafeMath.sol\":3150:3422  function div(uint256 a, uint256 b, string memory errorMessage) internal pure returns (uint256) {... */\n    tag_15:\n        /* \"Gacha/SafeMath.sol\":3236:3243  uint256 */\n      0x00\n        /* \"Gacha/SafeMath.sol\":3267:3268  0 */\n      dup1\n        /* \"Gacha/SafeMath.sol\":3263:3264  b */\n      dup4\n        /* \"Gacha/SafeMath.sol\":3263:3268  b > 0 */\n      gt\n        /* \"Gacha/SafeMath.sol\":3270:3282  errorMessage */\n      dup3\n        /* \"Gacha/SafeMath.sol\":3255:3283  require(b > 0, errorMessage) */\n      swap1\n      tag_17\n      jumpi\n      mload(0x40)\n      0x08c379a000000000000000000000000000000000000000000000000000000000\n      dup2\n      mstore\n      0x04\n      add\n      tag_18\n      swap2\n      swap1\n      tag_19\n      jump\t// in\n    tag_18:\n      mload(0x40)\n      dup1\n      swap2\n      sub\n      swap1\n      revert\n    tag_17:\n      pop\n        /* \"Gacha/SafeMath.sol\":3293:3302  uint256 c */\n      0x00\n        /* \"Gacha/SafeMath.sol\":3309:3310  b */\n      dup4\n        /* \"Gacha/SafeMath.sol\":3305:3306  a */\n      dup6\n        /* \"Gacha/SafeMath.sol\":3305:3310  a / b */\n      tag_20\n      swap2\n      swap1\n      tag_21\n      jump\t// in\n    tag_20:\n        /* \"Gacha/SafeMath.sol\":3293:3310  uint256 c = a / b */\n      swap1\n      pop\n        /* \"Gacha/SafeMath.sol\":3414:3415  c */\n      dup1\n        /* \"Gacha/SafeMath.sol\":3407:3415  return c */\n      swap2\n      pop\n      pop\n        /* \"Gacha/SafeMath.sol\":3150:3422  function div(uint256 a, uint256 b, string memory errorMessage) internal pure returns (uint256) {... */\n      swap4\n      swap3\n      pop\n      pop\n      pop\n      jump\t// out\n        /* \"#utility.yul\":88:205   */\n    tag_23:\n        /* \"#utility.yul\":197:198   */\n      0x00\n        /* \"#utility.yul\":194:195   */\n      dup1\n        /* \"#utility.yul\":187:199   */\n      revert\n        /* \"#utility.yul\":334:411   */\n    tag_25:\n        /* \"#utility.yul\":371:378   */\n      0x00\n        /* \"#utility.yul\":400:405   */\n      dup2\n        /* \"#utility.yul\":389:405   */\n      swap1\n      pop\n        /* \"#utility.yul\":334:411   */\n      swap2\n      swap1\n      pop\n      jump\t// out\n        /* \"#utility.yul\":417:539   */\n    tag_26:\n        /* \"#utility.yul\":490:514   */\n      tag_42\n        /* \"#utility.yul\":508:513   */\n      dup2\n        /* \"#utility.yul\":490:514   */\n      tag_25\n      jump\t// in\n    tag_42:\n        /* \"#utility.yul\":483:488   */\n      dup2\n        /* \"#utility.yul\":480:515   */\n      eq\n        /* \"#utility.yul\":470:533   */\n      tag_43\n      jumpi\n        /* \"#utility.yul\":529:530   */\n      0x00\n        /* \"#utility.yul\":526:527   */\n      dup1\n        /* \"#utility.yul\":519:531   */\n      revert\n        /* \"#utility.yul\":470:533   */\n    tag_43:\n        /* \"#utility.yul\":417:539   */\n      pop\n      jump\t// out\n        /* \"#utility.yul\":545:684   */\n    tag_27:\n        /* \"#utility.yul\":591:596   */\n      0x00\n        /* \"#utility.yul\":629:635   */\n      dup2\n        /* \"#utility.yul\":616:636   */\n      calldataload\n        /* \"#utility.yul\":607:636   */\n      swap1\n      pop\n        /* \"#utility.yul\":645:678   */\n      tag_45\n        /* \"#utility.yul\":672:677   */\n      dup2\n        /* \"#utility.yul\":645:678   */\n      tag_26\n      jump\t// in\n    tag_45:\n        /* \"#utility.yul\":545:684   */\n      swap3\n      swap2\n      pop\n      pop\n      jump\t// out\n        /* \"#utility.yul\":690:1164   */\n    tag_6:\n        /* \"#utility.yul\":758:764   */\n      0x00\n        /* \"#utility.yul\":766:772   */\n      dup1\n        /* \"#utility.yul\":815:817   */\n      0x40\n        /* \"#utility.yul\":803:812   */\n      dup4\n        /* \"#utility.yul\":794:801   */\n      dup6\n        /* \"#utility.yul\":790:813   */\n      sub\n        /* \"#utility.yul\":786:818   */\n      slt\n        /* \"#utility.yul\":783:902   */\n      iszero\n      tag_47\n      jumpi\n        /* \"#utility.yul\":821:900   */\n      tag_48\n      tag_23\n      jump\t// in\n    tag_48:\n        /* \"#utility.yul\":783:902   */\n    tag_47:\n        /* \"#utility.yul\":941:942   */\n      0x00\n        /* \"#utility.yul\":966:1019   */\n      tag_49\n        /* \"#utility.yul\":1011:1018   */\n      dup6\n        /* \"#utility.yul\":1002:1008   */\n      dup3\n        /* \"#utility.yul\":991:1000   */\n      dup7\n        /* \"#utility.yul\":987:1009   */\n      add\n        /* \"#utility.yul\":966:1019   */\n      tag_27\n      jump\t// in\n    tag_49:\n        /* \"#utility.yul\":956:1019   */\n      swap3\n      pop\n        /* \"#utility.yul\":912:1029   */\n      pop\n        /* \"#utility.yul\":1068:1070   */\n      0x20\n        /* \"#utility.yul\":1094:1147   */\n      tag_50\n        /* \"#utility.yul\":1139:1146   */\n      dup6\n        /* \"#utility.yul\":1130:1136   */\n      dup3\n        /* \"#utility.yul\":1119:1128   */\n      dup7\n        /* \"#utility.yul\":1115:1137   */\n      add\n        /* \"#utility.yul\":1094:1147   */\n      tag_27\n      jump\t// in\n    tag_50:\n        /* \"#utility.yul\":1084:1147   */\n      swap2\n      pop\n        /* \"#utility.yul\":1039:1157   */\n      pop\n        /* \"#utility.yul\":690:1164   */\n      swap3\n      pop\n      swap3\n      swap1\n      pop\n      jump\t// out\n        /* \"#utility.yul\":1170:1288   */\n    tag_28:\n        /* \"#utility.yul\":1257:1281   */\n      tag_52\n        /* \"#utility.yul\":1275:1280   */\n      dup2\n        /* \"#utility.yul\":1257:1281   */\n      tag_25\n      jump\t// in\n    tag_52:\n        /* \"#utility.yul\":1252:1255   */\n      dup3\n        /* \"#utility.yul\":1245:1282   */\n      mstore\n        /* \"#utility.yul\":1170:1288   */\n      pop\n      pop\n      jump\t// out\n        /* \"#utility.yul\":1294:1516   */\n    tag_9:\n        /* \"#utility.yul\":1387:1391   */\n      0x00\n        /* \"#utility.yul\":1425:1427   */\n      0x20\n        /* \"#utility.yul\":1414:1423   */\n      dup3\n        /* \"#utility.yul\":1410:1428   */\n      add\n        /* \"#utility.yul\":1402:1428   */\n      swap1\n      pop\n        /* \"#utility.yul\":1438:1509   */\n      tag_54\n        /* \"#utility.yul\":1506:1507   */\n      0x00\n        /* \"#utility.yul\":1495:1504   */\n      dup4\n        /* \"#utility.yul\":1491:1508   */\n      add\n        /* \"#utility.yul\":1482:1488   */\n      dup5\n        /* \"#utility.yul\":1438:1509   */\n      tag_28\n      jump\t// in\n    tag_54:\n        /* \"#utility.yul\":1294:1516   */\n      swap3\n      swap2\n      pop\n      pop\n      jump\t// out\n        /* \"#utility.yul\":1522:1621   */\n    tag_29:\n        /* \"#utility.yul\":1574:1580   */\n      0x00\n        /* \"#utility.yul\":1608:1613   */\n      dup2\n        /* \"#utility.yul\":1602:1614   */\n      mload\n        /* \"#utility.yul\":1592:1614   */\n      swap1\n      pop\n        /* \"#utility.yul\":1522:1621   */\n      swap2\n      swap1\n      pop\n      jump\t// out\n        /* \"#utility.yul\":1627:1796   */\n    tag_30:\n        /* \"#utility.yul\":1711:1722   */\n      0x00\n        /* \"#utility.yul\":1745:1751   */\n      dup3\n        /* \"#utility.yul\":1740:1743   */\n      dup3\n        /* \"#utility.yul\":1733:1752   */\n      mstore\n        /* \"#utility.yul\":1785:1789   */\n      0x20\n        /* \"#utility.yul\":1780:1783   */\n      dup3\n        /* \"#utility.yul\":1776:1790   */\n      add\n        /* \"#utility.yul\":1761:1790   */\n      swap1\n      pop\n        /* \"#utility.yul\":1627:1796   */\n      swap3\n      swap2\n      pop\n      pop\n      jump\t// out\n        /* \"#utility.yul\":1802:2048   */\n    tag_31:\n        /* \"#utility.yul\":1883:1884   */\n      0x00\n        /* \"#utility.yul\":1893:2006   */\n    tag_58:\n        /* \"#utility.yul\":1907:1913   */\n      dup4\n        /* \"#utility.yul\":1904:1905   */\n      dup2\n        /* \"#utility.yul\":1901:1914   */\n      lt\n        /* \"#utility.yul\":1893:2006   */\n      iszero\n      tag_60\n      jumpi\n        /* \"#utility.yul\":1992:1993   */\n      dup1\n        /* \"#utility.yul\":1987:1990   */\n      dup3\n        /* \"#utility.yul\":1983:1994   */\n      add\n        /* \"#utility.yul\":1977:1995   */\n      mload\n        /* \"#utility.yul\":1973:1974   */\n      dup2\n        /* \"#utility.yul\":1968:1971   */\n      dup5\n        /* \"#utility.yul\":1964:1975   */\n      add\n        /* \"#utility.yul\":1957:1996   */\n      mstore\n        /* \"#utility.yul\":1929:1931   */\n      0x20\n        /* \"#utility.yul\":1926:1927   */\n      dup2\n        /* \"#utility.yul\":1922:1932   */\n      add\n        /* \"#utility.yul\":1917:1932   */\n      swap1\n      pop\n        /* \"#utility.yul\":1893:2006   */\n      jump(tag_58)\n    tag_60:\n        /* \"#utility.yul\":2040:2041   */\n      0x00\n        /* \"#utility.yul\":2031:2037   */\n      dup5\n        /* \"#utility.yul\":2026:2029   */\n      dup5\n        /* \"#utility.yul\":2022:2038   */\n      add\n        /* \"#utility.yul\":2015:2042   */\n      mstore\n        /* \"#utility.yul\":1864:2048   */\n      pop\n        /* \"#utility.yul\":1802:2048   */\n      pop\n      pop\n      pop\n      jump\t// out\n        /* \"#utility.yul\":2054:2156   */\n    tag_32:\n        /* \"#utility.yul\":2095:2101   */\n      0x00\n        /* \"#utility.yul\":2146:2148   */\n      0x1f\n        /* \"#utility.yul\":2142:2149   */\n      not\n        /* \"#utility.yul\":2137:2139   */\n      0x1f\n        /* \"#utility.yul\":2130:2135   */\n      dup4\n        /* \"#utility.yul\":2126:2140   */\n      add\n        /* \"#utility.yul\":2122:2150   */\n      and\n        /* \"#utility.yul\":2112:2150   */\n      swap1\n      pop\n        /* \"#utility.yul\":2054:2156   */\n      swap2\n      swap1\n      pop\n      jump\t// out\n        /* \"#utility.yul\":2162:2539   */\n    tag_33:\n        /* \"#utility.yul\":2250:2253   */\n      0x00\n        /* \"#utility.yul\":2278:2317   */\n      tag_63\n        /* \"#utility.yul\":2311:2316   */\n      dup3\n        /* \"#utility.yul\":2278:2317   */\n      tag_29\n      jump\t// in\n    tag_63:\n        /* \"#utility.yul\":2333:2404   */\n      tag_64\n        /* \"#utility.yul\":2397:2403   */\n      dup2\n        /* \"#utility.yul\":2392:2395   */\n      dup6\n        /* \"#utility.yul\":2333:2404   */\n      tag_30\n      jump\t// in\n    tag_64:\n        /* \"#utility.yul\":2326:2404   */\n      swap4\n      pop\n        /* \"#utility.yul\":2413:2478   */\n      tag_65\n        /* \"#utility.yul\":2471:2477   */\n      dup2\n        /* \"#utility.yul\":2466:2469   */\n      dup6\n        /* \"#utility.yul\":2459:2463   */\n      0x20\n        /* \"#utility.yul\":2452:2457   */\n      dup7\n        /* \"#utility.yul\":2448:2464   */\n      add\n        /* \"#utility.yul\":2413:2478   */\n      tag_31\n      jump\t// in\n    tag_65:\n        /* \"#utility.yul\":2503:2532   */\n      tag_66\n        /* \"#utility.yul\":2525:2531   */\n      dup2\n        /* \"#utility.yul\":2503:2532   */\n      tag_32\n      jump\t// in\n    tag_66:\n        /* \"#utility.yul\":2498:2501   */\n      dup5\n        /* \"#utility.yul\":2494:2533   */\n      add\n        /* \"#utility.yul\":2487:2533   */\n      swap2\n      pop\n        /* \"#utility.yul\":2254:2539   */\n      pop\n        /* \"#utility.yul\":2162:2539   */\n      swap3\n      swap2\n      pop\n      pop\n      jump\t// out\n        /* \"#utility.yul\":2545:2858   */\n    tag_19:\n        /* \"#utility.yul\":2658:2662   */\n      0x00\n        /* \"#utility.yul\":2696:2698   */\n      0x20\n        /* \"#utility.yul\":2685:2694   */\n      dup3\n        /* \"#utility.yul\":2681:2699   */\n      add\n        /* \"#utility.yul\":2673:2699   */\n      swap1\n      pop\n        /* \"#utility.yul\":2745:2754   */\n      dup2\n        /* \"#utility.yul\":2739:2743   */\n      dup2\n        /* \"#utility.yul\":2735:2755   */\n      sub\n        /* \"#utility.yul\":2731:2732   */\n      0x00\n        /* \"#utility.yul\":2720:2729   */\n      dup4\n        /* \"#utility.yul\":2716:2733   */\n      add\n        /* \"#utility.yul\":2709:2756   */\n      mstore\n        /* \"#utility.yul\":2773:2851   */\n      tag_68\n        /* \"#utility.yul\":2846:2850   */\n      dup2\n        /* \"#utility.yul\":2837:2843   */\n      dup5\n        /* \"#utility.yul\":2773:2851   */\n      tag_33\n      jump\t// in\n    tag_68:\n        /* \"#utility.yul\":2765:2851   */\n      swap1\n      pop\n        /* \"#utility.yul\":2545:2858   */\n      swap3\n      swap2\n      pop\n      pop\n      jump\t// out\n        /* \"#utility.yul\":2864:3044   */\n    tag_34:\n        /* \"#utility.yul\":2912:2989   */\n      0x4e487b7100000000000000000000000000000000000000000000000000000000\n        /* \"#utility.yul\":2909:2910   */\n      0x00\n        /* \"#utility.yul\":2902:2990   */\n      mstore\n        /* \"#utility.yul\":3009:3013   */\n      0x12\n        /* \"#utility.yul\":3006:3007   */\n      0x04\n        /* \"#utility.yul\":2999:3014   */\n      mstore\n        /* \"#utility.yul\":3033:3037   */\n      0x24\n        /* \"#utility.yul\":3030:3031   */\n      0x00\n        /* \"#utility.yul\":3023:3038   */\n      revert\n        /* \"#utility.yul\":3236:3421   */\n    tag_21:\n        /* \"#utility.yul\":3276:3277   */\n      0x00\n        /* \"#utility.yul\":3293:3313   */\n      tag_72\n        /* \"#utility.yul\":3311:3312   */\n      dup3\n        /* \"#utility.yul\":3293:3313   */\n      tag_25\n      jump\t// in\n    tag_72:\n        /* \"#utility.yul\":3288:3313   */\n      swap2\n      pop\n        /* \"#utility.yul\":3327:3347   */\n      tag_73\n        /* \"#utility.yul\":3345:3346   */\n      dup4\n        /* \"#utility.yul\":3327:3347   */\n      tag_25\n      jump\t// in\n    tag_73:\n        /* \"#utility.yul\":3322:3347   */\n      swap3\n      pop\n        /* \"#utility.yul\":3366:3367   */\n      dup3\n        /* \"#utility.yul\":3356:3391   */\n      tag_74\n      jumpi\n        /* \"#utility.yul\":3371:3389   */\n      tag_75\n      tag_34\n      jump\t// in\n    tag_75:\n        /* \"#utility.yul\":3356:3391   */\n    tag_74:\n        /* \"#utility.yul\":3413:3414   */\n      dup3\n        /* \"#utility.yul\":3410:3411   */\n      dup3\n        /* \"#utility.yul\":3406:3415   */\n      div\n        /* \"#utility.yul\":3401:3415   */\n      swap1\n      pop\n        /* \"#utility.yul\":3236:3421   */\n      swap3\n      swap2\n      pop\n      pop\n      jump\t// out\n\n    auxdata: 0xa2646970667358221220339134d862c14b7bfc9673358a98e457e1924377e4ce57dfee32e5976528575264736f6c63430008110033\n}\n",
				"bytecode": {
					"linkReferences": {},
					"object": "608060405234801561001057600080fd5b50610317806100206000396000f3fe608060405234801561001057600080fd5b506004361061002b5760003560e01c80634e4fe30614610030575b600080fd5b61004a60048036038101906100459190610165565b610060565b60405161005791906101b4565b60405180910390f35b6000610075828461007d90919063ffffffff16565b905092915050565b60006100bf83836040518060400160405280601a81526020017f536166654d6174683a206469766973696f6e206279207a65726f0000000000008152506100c7565b905092915050565b6000808311829061010e576040517f08c379a0000000000000000000000000000000000000000000000000000000008152600401610105919061025f565b60405180910390fd5b506000838561011d91906102b0565b9050809150509392505050565b600080fd5b6000819050919050565b6101428161012f565b811461014d57600080fd5b50565b60008135905061015f81610139565b92915050565b6000806040838503121561017c5761017b61012a565b5b600061018a85828601610150565b925050602061019b85828601610150565b9150509250929050565b6101ae8161012f565b82525050565b60006020820190506101c960008301846101a5565b92915050565b600081519050919050565b600082825260208201905092915050565b60005b838110156102095780820151818401526020810190506101ee565b60008484015250505050565b6000601f19601f8301169050919050565b6000610231826101cf565b61023b81856101da565b935061024b8185602086016101eb565b61025481610215565b840191505092915050565b600060208201905081810360008301526102798184610226565b905092915050565b7f4e487b7100000000000000000000000000000000000000000000000000000000600052601260045260246000fd5b60006102bb8261012f565b91506102c68361012f565b9250826102d6576102d5610281565b5b82820490509291505056fea2646970667358221220339134d862c14b7bfc9673358a98e457e1924377e4ce57dfee32e5976528575264736f6c63430008110033",
					"opcodes": "PUSH1 0x80 PUSH1 0x40 MSTORE CALLVALUE DUP1 ISZERO PUSH2 0x10 JUMPI PUSH1 0x0 DUP1 REVERT JUMPDEST POP PUSH2 0x317 DUP1 PUSH2 0x20 PUSH1 0x0 CODECOPY PUSH1 0x0 RETURN INVALID PUSH1 0x80 PUSH1 0x40 MSTORE CALLVALUE DUP1 ISZERO PUSH2 0x10 JUMPI PUSH1 0x0 DUP1 REVERT JUMPDEST POP PUSH1 0x4 CALLDATASIZE LT PUSH2 0x2B JUMPI PUSH1 0x0 CALLDATALOAD PUSH1 0xE0 SHR DUP1 PUSH4 0x4E4FE306 EQ PUSH2 0x30 JUMPI JUMPDEST PUSH1 0x0 DUP1 REVERT JUMPDEST PUSH2 0x4A PUSH1 0x4 DUP1 CALLDATASIZE SUB DUP2 ADD SWAP1 PUSH2 0x45 SWAP2 SWAP1 PUSH2 0x165 JUMP JUMPDEST PUSH2 0x60 JUMP JUMPDEST PUSH1 0x40 MLOAD PUSH2 0x57 SWAP2 SWAP1 PUSH2 0x1B4 JUMP JUMPDEST PUSH1 0x40 MLOAD DUP1 SWAP2 SUB SWAP1 RETURN JUMPDEST PUSH1 0x0 PUSH2 0x75 DUP3 DUP5 PUSH2 0x7D SWAP1 SWAP2 SWAP1 PUSH4 0xFFFFFFFF AND JUMP JUMPDEST SWAP1 POP SWAP3 SWAP2 POP POP JUMP JUMPDEST PUSH1 0x0 PUSH2 0xBF DUP4 DUP4 PUSH1 0x40 MLOAD DUP1 PUSH1 0x40 ADD PUSH1 0x40 MSTORE DUP1 PUSH1 0x1A DUP2 MSTORE PUSH1 0x20 ADD PUSH32 0x536166654D6174683A206469766973696F6E206279207A65726F000000000000 DUP2 MSTORE POP PUSH2 0xC7 JUMP JUMPDEST SWAP1 POP SWAP3 SWAP2 POP POP JUMP JUMPDEST PUSH1 0x0 DUP1 DUP4 GT DUP3 SWAP1 PUSH2 0x10E JUMPI PUSH1 0x40 MLOAD PUSH32 0x8C379A000000000000000000000000000000000000000000000000000000000 DUP2 MSTORE PUSH1 0x4 ADD PUSH2 0x105 SWAP2 SWAP1 PUSH2 0x25F JUMP JUMPDEST PUSH1 0x40 MLOAD DUP1 SWAP2 SUB SWAP1 REVERT JUMPDEST POP PUSH1 0x0 DUP4 DUP6 PUSH2 0x11D SWAP2 SWAP1 PUSH2 0x2B0 JUMP JUMPDEST SWAP1 POP DUP1 SWAP2 POP POP SWAP4 SWAP3 POP POP POP JUMP JUMPDEST PUSH1 0x0 DUP1 REVERT JUMPDEST PUSH1 0x0 DUP2 SWAP1 POP SWAP2 SWAP1 POP JUMP JUMPDEST PUSH2 0x142 DUP2 PUSH2 0x12F JUMP JUMPDEST DUP2 EQ PUSH2 0x14D JUMPI PUSH1 0x0 DUP1 REVERT JUMPDEST POP JUMP JUMPDEST PUSH1 0x0 DUP2 CALLDATALOAD SWAP1 POP PUSH2 0x15F DUP2 PUSH2 0x139 JUMP JUMPDEST SWAP3 SWAP2 POP POP JUMP JUMPDEST PUSH1 0x0 DUP1 PUSH1 0x40 DUP4 DUP6 SUB SLT ISZERO PUSH2 0x17C JUMPI PUSH2 0x17B PUSH2 0x12A JUMP JUMPDEST JUMPDEST PUSH1 0x0 PUSH2 0x18A DUP6 DUP3 DUP7 ADD PUSH2 0x150 JUMP JUMPDEST SWAP3 POP POP PUSH1 0x20 PUSH2 0x19B DUP6 DUP3 DUP7 ADD PUSH2 0x150 JUMP JUMPDEST SWAP2 POP POP SWAP3 POP SWAP3 SWAP1 POP JUMP JUMPDEST PUSH2 0x1AE DUP2 PUSH2 0x12F JUMP JUMPDEST DUP3 MSTORE POP POP JUMP JUMPDEST PUSH1 0x0 PUSH1 0x20 DUP3 ADD SWAP1 POP PUSH2 0x1C9 PUSH1 0x0 DUP4 ADD DUP5 PUSH2 0x1A5 JUMP JUMPDEST SWAP3 SWAP2 POP POP JUMP JUMPDEST PUSH1 0x0 DUP2 MLOAD SWAP1 POP SWAP2 SWAP1 POP JUMP JUMPDEST PUSH1 0x0 DUP3 DUP3 MSTORE PUSH1 0x20 DUP3 ADD SWAP1 POP SWAP3 SWAP2 POP POP JUMP JUMPDEST PUSH1 0x0 JUMPDEST DUP4 DUP2 LT ISZERO PUSH2 0x209 JUMPI DUP1 DUP3 ADD MLOAD DUP2 DUP5 ADD MSTORE PUSH1 0x20 DUP2 ADD SWAP1 POP PUSH2 0x1EE JUMP JUMPDEST PUSH1 0x0 DUP5 DUP5 ADD MSTORE POP POP POP POP JUMP JUMPDEST PUSH1 0x0 PUSH1 0x1F NOT PUSH1 0x1F DUP4 ADD AND SWAP1 POP SWAP2 SWAP1 POP JUMP JUMPDEST PUSH1 0x0 PUSH2 0x231 DUP3 PUSH2 0x1CF JUMP JUMPDEST PUSH2 0x23B DUP2 DUP6 PUSH2 0x1DA JUMP JUMPDEST SWAP4 POP PUSH2 0x24B DUP2 DUP6 PUSH1 0x20 DUP7 ADD PUSH2 0x1EB JUMP JUMPDEST PUSH2 0x254 DUP2 PUSH2 0x215 JUMP JUMPDEST DUP5 ADD SWAP2 POP POP SWAP3 SWAP2 POP POP JUMP JUMPDEST PUSH1 0x0 PUSH1 0x20 DUP3 ADD SWAP1 POP DUP2 DUP2 SUB PUSH1 0x0 DUP4 ADD MSTORE PUSH2 0x279 DUP2 DUP5 PUSH2 0x226 JUMP JUMPDEST SWAP1 POP SWAP3 SWAP2 POP POP JUMP JUMPDEST PUSH32 0x4E487B7100000000000000000000000000000000000000000000000000000000 PUSH1 0x0 MSTORE PUSH1 0x12 PUSH1 0x4 MSTORE PUSH1 0x24 PUSH1 0x0 REVERT JUMPDEST PUSH1 0x0 PUSH2 0x2BB DUP3 PUSH2 0x12F JUMP JUMPDEST SWAP2 POP PUSH2 0x2C6 DUP4 PUSH2 0x12F JUMP JUMPDEST SWAP3 POP DUP3 PUSH2 0x2D6 JUMPI PUSH2 0x2D5 PUSH2 0x281 JUMP JUMPDEST JUMPDEST DUP3 DUP3 DIV SWAP1 POP SWAP3 SWAP2 POP POP JUMP INVALID LOG2 PUSH5 0x6970667358 0x22 SLT KECCAK256 CALLER SWAP2 CALLVALUE 0xD8 PUSH3 0xC14B7B 0xFC SWAP7 PUSH20 0x358A98E457E1924377E4CE57DFEE32E597652857 MSTORE PUSH5 0x736F6C6343 STOP ADDMOD GT STOP CALLER "
				},
				"gasEstimates": {
					"creation": {
						"codeDepositCost": "158200",
						"executionCost": "202",
						"totalCost": "158402"
					},
					"external": {
						"getData(uint256,uint256)": "infinite"
					}
				},
				"methodIdentifiers": {
					"getData(uint256,uint256)": "4e4fe306"
				}
			},
			"storageLayout": {
				"storage": [],
				"types": null
			},
			"userdoc": {
				"kind": "user",
				"methods": {},
				"version": 1
			}
		}
	}
}